import { getRawTransactionAsObjectResultOutputSchema } from './schemas';

describe('getRawTransactionAsObjectResultOutputSchema', () => {
  it('should support Litecoin mimblewimble output 1', () => {
    const value = {
      txid: '702570a8271507bd5883c2db305b93a3e1c1b8f141f23d259ebc9cd09e7bfd73',
      hash: '702570a8271507bd5883c2db305b93a3e1c1b8f141f23d259ebc9cd09e7bfd73',
      version: 2,
      size: 1334,
      vsize: 31,
      weight: 124,
      locktime: 2267842,
      vin: [
        {
          ismweb: true,
          output_id:
            '77f58ae1ce8fe07fae474db9dcfee1dccf13c6a32f48125a31c59fbcc8c153f3',
        },
      ],
      vout: [
        {
          ismweb: true,
          output_id:
            '94935c75222d6a2856987faa7f2d6270b70abdd40ae4b0b84193f2c956ffd227',
        },
      ],
      vkern: [
        {
          kernel_id:
            '73fd7b9ed09cbc9e253df241f1b8c1e1a3935b30dbc28358bd071527a8702570',
          fee: 0.0000251,
          pegin: 0,
          pegout: [
            {
              value: 0.0998749,
              scriptPubKey: {
                asm: '0 e55017504d6e791f2d2a77ff9f15d5acede4a548',
                hex: '0014e55017504d6e791f2d2a77ff9f15d5acede4a548',
                reqSigs: 1,
                type: 'witness_v0_keyhash',
                addresses: ['ltc1qu4gpw5zddeu37tf2wlle79w44nk7ff2ggd0ppv'],
              },
            },
          ],
        },
      ],
      hex: '020000000008000001824c85a6f79b29ca7acecb8e56174f9694f168c568f750c63f31e7d741197fbe18b93fbe788d1e14b1328c80ee4debcc2b21c2c6a4e5c9dbf245a516db8c5221010177f58ae1ce8fe07fae474db9dcfee1dccf13c6a32f48125a31c59fbcc8c153f308ac686fe3f263612f5080507449b2e9025fb964797ee7db0b4a4d5aa3aeb360450276f776210dbc3751724e607d5ff3c92643404bdaa5d7c813b21d95cc79be3ab7038001b5ed5990533abf7b404b769b76ed352a349281992624c5101b4d656827331527399e2e6e7614de10d647fc333405ee25dfd9cda3fcd05f15e695f913d6411a04fb520a1d994c82af923573c193926cb35c3148178fffe1b9bda279c899e60109522b62d76525ffad11cbda82dae762d0dfa31bdbe9810ad27c45279437fa26b0036d8a0fb3368dd4ac6cf3af3eb597856f8c4591d6df9c28b11a41714e8017b31503171af268373ff95fe19b64f1ae8172fcb5978d75cf4ad4d1992e4c281d72184f0103f6f2be16630141b255d23777b226637d8eda669c73be75d38f9b179ba33812e5f277d6dffbeeb96af50566facd9d1172154e6b2edd17389132c299ddc846be28fd5daa6706dfed2b54f3074649d158248ff7614effa3a5ee6f791f71484b91a0f7717e25e98cf6c27202a83138e11fbfaee95d82d31b6cf938018386beb628e809956bc9430f0ab2942d9e2145e258a8154b07f45798851654184aba3dd8c68d3d27098acb0f0ddc43e65337bd747a54a381a42a4a262e249b2c5802292600278d24dea8ac0d33cbf1a8868fd000ca01091936acdaa947fc67f1ecbc200e8c586c5dd40d7fe27cc090fb27610ce4ad5689da63ce15336105de9fcc2c9d18f60a8200f7af00caf491c1c4e1cef94604f12dbe196e7048981e4c72877dbcebdc5e77098d91c6f910f378d8ba51c0e1563eeeb662348da5b05bbbfbb210cf309263cc7ae4d4e5b00b46a877fedd28dd37ee41ad7f07bc842d6d37c4bff131cf6b26b2e0baccf687d4960e7f42d5485fe65dc0a1246c35e3b938cf1238cc8e39b14b49dd029584d0046328d39d87886d9ab784902be5fad85e2ff0ea5e02964ae20bb305ff877506c29affd4312d0cb2f03967c9b7ef4cdae0580ec7668bac5a10548aa52953064afb5cc314bf5781077321ff8aa9503220469f5622fcc96d4638a0bd09d289d156cfb201e40cdd930ec80a2378edabd82d6231502e426818d277eb99f198d2762424ff72946c5095f43e6465440406de1e32342bce1c9f2d722ef6be7f2895fd2758a18261beecdeeffc249357b76290aa6c110639a74fde2aaec3a428ca521a21fe50d36ed792cc34e51cf9e60f8b0b6b6a13cc9c24e11fb36de66c7353d1ca5db7191a8185b0142841f0a22e82df96e8d3921d2573dcc28cdedd65ca798a28973c57de5a666b6a2a9162b95580029e88965292102fd571cea191ffdd6e5de75d0df701778c1f8e13f0c82dc93f0fdf2a39e9f3223bfc302cc644849b870bd5aa7b51cf582e4748d9be0471e299c897c23d13a3091bc6b92fb8813c4075ef5ef5cf1677692e58927d5c73f99bf85dc3fbb0376ad11aca428976524f71f85b0aa56b8920931549cd40463916c0622afaaa9e8e6c2d713d0115924e0183e0ca22160014e55017504d6e791f2d2a77ff9f15d5acede4a54803e72533d05bb04021a325a6197aed08148ee1b6f39224443d3d32fa16fa703583091c74370b6bc2228bf51a8beb6a37744fb99bb65b97065d8f123b18be2e9d5b3f25bfd97c9a88904b81f938afff8a0dbc9d64f8f6f0f74afcc1dc10fd894be7d448c5aa38e2c0cf992241ac99fd8b41f25916edb1b9c1946e36c0ec96af1573b4c29a2200',
    };

    getRawTransactionAsObjectResultOutputSchema.parse(value);
  });

  it('should support Litecoin mimblewimble output 2', () => {
    const value = {
      txid: '0b465c970d09704c0cb3462e167e93e0fcb08d80fcc819196ce0f5bceffd7057',
      hash: '887b76faa04e6dc427ec862d6f237631bc502056bf9c8e2006bbe83abbd9e5b0',
      version: 2,
      size: 2201,
      vsize: 163,
      weight: 649,
      locktime: 2267858,
      vin: [
        {
          ismweb: false,
          txid: '203ca0149844f52f7f849c41634ba51af39d38e9bd423dbfc8b5b9d7cbb424be',
          vout: 0,
          scriptSig: {
            asm: '',
            hex: '',
          },
          txinwitness: [
            '3044022042a290ed92f6b03699dc87ed97cbea77da8249782bd3a75411b4bdfcd6e80adb0220773020b894e6ab2977ef522535098194336cc630b28a7cb91d1304682736484701',
            '023b1d978872e931706227aed619d85c220cabf6dc674b1c99c30f104c5622a500',
          ],
          sequence: 4294967294,
        },
      ],
      vout: [
        {
          ismweb: false,
          value: 0.01399282,
          n: 0,
          scriptPubKey: {
            asm: '9 6b483366570e582846d91436f6a5657b12a8367335a9a2cab7eaec26d94a54e5',
            hex: '59206b483366570e582846d91436f6a5657b12a8367335a9a2cab7eaec26d94a54e5',
            type: 'witness_mweb_pegin',
          },
        },
        {
          ismweb: true,
          output_id:
            '4380e2fb1dd63d7ab5280af24ee441c3c9c94340b4021944c1dcd95795ad0317',
        },
        {
          ismweb: true,
          output_id:
            'ba14596eef8ed8bf8475183799e23cc3321ff69c5d256a25d280c06d6570937b',
        },
      ],
      vkern: [
        {
          kernel_id:
            '6b483366570e582846d91436f6a5657b12a8367335a9a2cab7eaec26d94a54e5',
          fee: 0.000039,
          pegin: 0.01399282,
          pegout: [],
        },
      ],
      hex: '02000000000901be24b4cbd7b9b5c8bf3d42bde9389df31aa54b63419c847f2ff5449814a03c200000000000feffffff01f2591500000000002259206b483366570e582846d91436f6a5657b12a8367335a9a2cab7eaec26d94a54e502473044022042a290ed92f6b03699dc87ed97cbea77da8249782bd3a75411b4bdfcd6e80adb0220773020b894e6ab2977ef522535098194336cc630b28a7cb91d130468273648470121023b1d978872e931706227aed619d85c220cabf6dc674b1c99c30f104c5622a50001d34d2fd16b1583fa49b54451f3410131a0e2a5b16575d3b1c6e1e304b26a6cc39a8303af06753d3c7f2a3c9d810811da3d33a0d0e8d417120458d76691e61d83000209d5afab9d3ae89dabbd95fa1d8e0faca4bcd3219b96d32f88d271bc1f1fe697ed02012656036484c97e21eee8b82f45585b98309d5a6c0c3434bdaeaaf9fbd7c9af02cda357f5d40121ca25992fc415dd5dfe0968f5e544be227f9af36ddf0d6dcfb30102096ebf2f9e05c2f6b939d9e199aa0fb3bd2dfc521a52606ead24d8882b53b8edf786d5ecd6da09058e73f0521b9d23979229de0845f357c57165aed0eea0115f8a7e3a931dbd3dd2078fefb728eea1f1a489a4704574bc1cad6b8e84993093fcab08902b46ca9cf0d1a958655c298ae26366ead7a01e9bb545095c0f2297b673a976c81de6e810810d095f5adb2101a56bfc7bfbe3b78b2265017648c7e89a11fbeda9403d0eacdc854f458da08cc6368bff971a29fd7597b3029d9714f0751b1d836c360921b85e95ad435bd86349feeb2b67d295b2c1fd37eed6884dfe4b532aff4adf28f60f5de1c24aedcacee9a78c74c567187af87f9125bf91a35153bdb3c5aab6446eb6696b4fbce5ec68116337a06f770635a64551ec6e5ecc3dc00541c6115b313f53e7c627b7b778ec9c69ebcf6ee99acbbc005819a09e880e03a418cd8953a1ebe5e75a47e2c7852d69414aad7e58efdda213726c5a889e7bde84dd2c8ee63531d3e4e1a3a4490475f97d4f923508ab886d9ccf60b0958c4a252e7fed24efa6d238524b0e4dd915227ee09ab73d6464030e31c6570d02b016dadbd91c4b103c224a330c1264d08ea07a0246025ce9d5e16e8a58f84866750f2957dd51f995db1280aead7c22093e1bb128316bc8f89e4b3474f9743f0f076d62c8751c3233361d227085a6b752cbe939f85bab4c3ca92507c335408574ecb094da7d1d4b90a1a8f7945070e0dbe67d34b817e11039f25b2f80fb14f907173f1fb7ef952828d16743e0e9ecc08c519ea80eecc640ffd983a241bf044ea919e925b668ae4847be03d3689deb3078238b810c86e46b4e0809701b1556df12a9569b6f2a968621efeec95328a2f770cb0cb3dbe7b7d8c01ea02eb3cf5bb89278b23b0e54fb941aea69cadb79c17cffe02bd77f505fc8d21784abc508824add8a6e019aa6833e73c732ffeecd292d71bfa4e1aa8f0c03494252d13bef53581aa2fde0344cbe2b82a87254f771fc2140a9b895d304df55e2454b734b17a04cdfbda0fbc83f667d4e8657b8086e7a0dac41524b0c8968b9360b65a242387f0c64192b9a12e5a7701d74f2ca849f8f75e42db9cf5976b1cee705cdc083b0af4750097d9194f3d7ef47cf80657281b0e9f9f3d9ad4d6090a7f81a83e0f2543143591e0243393546e07625eeb4174864997b2b0d16bdf068e72e91e1935fe0773d4e69ee037942aebfa7d63e93c81c88b42be729753ee1a8e00a8cf369d6cb5aeb104b5d6b0103f1762f6d24b0142b644d83f50f31104c305375257f4aa4f8d76a7c6be9c13347a7a8e773dfc91763f141ebeb4f82fc2ae7966b85c4019a805f13bba22e17a0700b330b49a1068b70e901086cbceafeeabbd10a77b66be9fbfa220bafadc3607c6c7c22c6d691811c06c5ba6306f5230cb16bc2e197ef1b1cdc0097d8000033dadd2d8a5d80034e71ad25db6cc4ef2d23e075f3b129b47e30b3383b312c857c8f5e4b33afb40863202a8813149e966cc7db50e4ffd3e550902704518641aa39282422477c50b26b36dbb8eb13e70999d5eeb04dce91267ad2089e539ac6bdf1039ce2775445b3cc55b17fa788433d9d7c22f7d0d25ead445b834d4b09fc511e8b1d77a03f696fa19c6e2303d1288039c9ac7f6baf01601fd49d79874a1ead042e2566e7559a1ea910ebd81f4c2fe7ec0d9a1f299ccb863d3f426d6f8f037f1ed19d4aea367652378a9a37cd6cbf00fa8ea7037f205892c8350d9831cfaa42f19fbe9183cbd7e24dd28c97813b7f3c8909bd26d866e4942a3a39f42c8d13fea9bea556b55ef8d861cb375db824949645ca4ee3bc67c1cc1aa29a7c1703d45defd763caaa19fbe5165d8e13c0b77b311ece08ef70fcae2b81e7e2abbfbf4e544760a81234bf46e83723df0bcd36c319fb2ea02a5eb03e120ecb1e528d8aaa9e3a6b257581679d75d6381e97c1d0788b2ccb2dd1201af90cc43093766f7e3ec6ad78d6ea37307e3e81506f336926b4cc20da9c9fb9245602baba9bf8f7821b0cb505f5232a5fe451bc1c21a03ef98b6408d14ac182eabe8a6e06524b20ea49fc43de8037cfc0cebcf29193b26fd0fa8b54d06057d427c19e0bd8e4ac1f1378175e7ca0e239f8f3e1cfe41ff045d167065df8c4b3ecfceedf04124216ad6e1b518dea0e52b648d7f274d7df1798926a71120a4896ef8ad867d0109c0550af6080f7c9e7fdf15f85c8afccec994908297b48c86536ea1d1c8efe9484eb45509366b460c7ab52b25cd33fa4a7de8c78e3800fe50ce6e3b94aad6a7ca4572c2f5fa18733ef00570a92c5a4874b0a2e4b9337dbcd7ff1e03183962ba13163898be028d52ef3059bb3aa60869d8d7dd7cc4447ec0d51cec85eb5bfe35c529278f801139d3cd4b27202f88b2d1295a7521ad9819bf9d5a3cbeefd07bf0d9721998461ccf81d44731c4c096fa785226d4b520c641a46c5ed8d4b7811d8e8c1ecc549633206219b6e4b7ac14bcf0fbc11088312fc0c7e5a9f4b8da67174f8b7afd0153dbe23beec97ba84df2d392147b53fd55bc6dd30664274edcddb0d68cfb0c29de19f0d77bdf005bc14d29a2200',
    };

      getRawTransactionAsObjectResultOutputSchema.parse(value);
  });
});
